:020000020000FC
:100000001BC018951895189518951895189518955A
:100010001895189518951895189518951895189578
:100020001895189518951895189518951895189568
:10003000189518951895189504E00EBF08E80DBF9F
:100040000FEF0ABB0BBB07BB08BB04BB05BB01BB67
:1000500002BB06B907B90FEF0BBB08BB05BB02BB60
:1000600007B908D000E00BBB08BB05BB02BB07B952
:1000700001D0F1CF04E1112722272A95F1F71A9533
:08008000E1F70A95D1F708959C
:00000001FF
